{
  "_format": "hh-sol-artifact-1",
  "contractName": "SupplyChainEscrow",
  "sourceName": "contracts/SupplyChainEscrow.sol",
  "abi": [
    {
      "inputs": [
        {
          "internalType": "address",
          "name": "_seller",
          "type": "address"
        },
        {
          "internalType": "address",
          "name": "_arbitrator",
          "type": "address"
        },
        {
          "internalType": "uint256",
          "name": "_deliveryDeadline",
          "type": "uint256"
        }
      ],
      "stateMutability": "payable",
      "type": "constructor"
    },
    {
      "inputs": [],
      "name": "amount",
      "outputs": [
        {
          "internalType": "uint256",
          "name": "",
          "type": "uint256"
        }
      ],
      "stateMutability": "view",
      "type": "function"
    },
    {
      "inputs": [],
      "name": "arbitrator",
      "outputs": [
        {
          "internalType": "address",
          "name": "",
          "type": "address"
        }
      ],
      "stateMutability": "view",
      "type": "function"
    },
    {
      "inputs": [],
      "name": "buyer",
      "outputs": [
        {
          "internalType": "address",
          "name": "",
          "type": "address"
        }
      ],
      "stateMutability": "view",
      "type": "function"
    },
    {
      "inputs": [],
      "name": "buyerConfirmedDelivery",
      "outputs": [
        {
          "internalType": "bool",
          "name": "",
          "type": "bool"
        }
      ],
      "stateMutability": "view",
      "type": "function"
    },
    {
      "inputs": [],
      "name": "confirmDelivery",
      "outputs": [],
      "stateMutability": "nonpayable",
      "type": "function"
    },
    {
      "inputs": [],
      "name": "deliveryDeadline",
      "outputs": [
        {
          "internalType": "uint256",
          "name": "",
          "type": "uint256"
        }
      ],
      "stateMutability": "view",
      "type": "function"
    },
    {
      "inputs": [],
      "name": "lockFunds",
      "outputs": [],
      "stateMutability": "payable",
      "type": "function"
    },
    {
      "inputs": [],
      "name": "refundBuyer",
      "outputs": [],
      "stateMutability": "nonpayable",
      "type": "function"
    },
    {
      "inputs": [],
      "name": "requestPayout",
      "outputs": [],
      "stateMutability": "nonpayable",
      "type": "function"
    },
    {
      "inputs": [
        {
          "internalType": "bool",
          "name": "releaseToSeller",
          "type": "bool"
        }
      ],
      "name": "resolveDispute",
      "outputs": [],
      "stateMutability": "nonpayable",
      "type": "function"
    },
    {
      "inputs": [],
      "name": "seller",
      "outputs": [
        {
          "internalType": "address",
          "name": "",
          "type": "address"
        }
      ],
      "stateMutability": "view",
      "type": "function"
    },
    {
      "inputs": [],
      "name": "sellerRequestedPayout",
      "outputs": [
        {
          "internalType": "bool",
          "name": "",
          "type": "bool"
        }
      ],
      "stateMutability": "view",
      "type": "function"
    },
    {
      "inputs": [],
      "name": "state",
      "outputs": [
        {
          "internalType": "enum SupplyChainEscrow.State",
          "name": "",
          "type": "uint8"
        }
      ],
      "stateMutability": "view",
      "type": "function"
    }
  ],
  "bytecode": "0x60806040526040516200128c3803806200128c8339818101604052810190620000299190620001e2565b336000806101000a81548173ffffffffffffffffffffffffffffffffffffffff021916908373ffffffffffffffffffffffffffffffffffffffff16021790555082600160006101000a81548173ffffffffffffffffffffffffffffffffffffffff021916908373ffffffffffffffffffffffffffffffffffffffff16021790555081600260006101000a81548173ffffffffffffffffffffffffffffffffffffffff021916908373ffffffffffffffffffffffffffffffffffffffff1602179055503460038190555080426200010091906200026d565b6004819055506000600560026101000a81548160ff021916908360038111156200012f576200012e620002a8565b5b0217905550505050620002d7565b600080fd5b600073ffffffffffffffffffffffffffffffffffffffff82169050919050565b60006200016f8262000142565b9050919050565b620001818162000162565b81146200018d57600080fd5b50565b600081519050620001a18162000176565b92915050565b6000819050919050565b620001bc81620001a7565b8114620001c857600080fd5b50565b600081519050620001dc81620001b1565b92915050565b600080600060608486031215620001fe57620001fd6200013d565b5b60006200020e8682870162000190565b9350506020620002218682870162000190565b92505060406200023486828701620001cb565b9150509250925092565b7f4e487b7100000000000000000000000000000000000000000000000000000000600052601160045260246000fd5b60006200027a82620001a7565b91506200028783620001a7565b9250828201905080821115620002a257620002a16200023e565b5b92915050565b7f4e487b7100000000000000000000000000000000000000000000000000000000600052602160045260246000fd5b610fa580620002e76000396000f3fe6080604052600436106100c25760003560e01c8063854ea8de1161007f578063ae2d384a11610059578063ae2d384a14610220578063c19d93fb1461024b578063e8a61cc814610276578063fa9befda1461028d576100c2565b8063854ea8de146101a157806389e1e82a146101cc578063aa8c217c146101f5576100c2565b806308551a53146100c757806357549eb0146100f25780635e10177b1461011d57806365058f4c146101345780636cc6cde11461014b5780637150d8ae14610176575b600080fd5b3480156100d357600080fd5b506100dc610297565b6040516100e99190610af5565b60405180910390f35b3480156100fe57600080fd5b506101076102bd565b6040516101149190610b29565b60405180910390f35b34801561012957600080fd5b506101326102c3565b005b34801561014057600080fd5b5061014961045f565b005b34801561015757600080fd5b506101606105c7565b60405161016d9190610af5565b60405180910390f35b34801561018257600080fd5b5061018b6105ed565b6040516101989190610af5565b60405180910390f35b3480156101ad57600080fd5b506101b6610611565b6040516101c39190610b5f565b60405180910390f35b3480156101d857600080fd5b506101f360048036038101906101ee9190610bab565b610624565b005b34801561020157600080fd5b5061020a610838565b6040516102179190610b29565b60405180910390f35b34801561022c57600080fd5b5061023561083e565b6040516102429190610b5f565b60405180910390f35b34801561025757600080fd5b50610260610851565b60405161026d9190610c4f565b60405180910390f35b34801561028257600080fd5b5061028b610864565b005b6102956109b5565b005b600160009054906101000a900473ffffffffffffffffffffffffffffffffffffffff1681565b60045481565b60008054906101000a900473ffffffffffffffffffffffffffffffffffffffff1673ffffffffffffffffffffffffffffffffffffffff163373ffffffffffffffffffffffffffffffffffffffff1614610351576040517f08c379a000000000000000000000000000000000000000000000000000000000815260040161034890610cc7565b60405180910390fd5b6001600381111561036557610364610bd8565b5b600560029054906101000a900460ff16600381111561038757610386610bd8565b5b146103c7576040517f08c379a00000000000000000000000000000000000000000000000000000000081526004016103be90610d33565b60405180910390fd5b6002600560026101000a81548160ff021916908360038111156103ed576103ec610bd8565b5b0217905550600160009054906101000a900473ffffffffffffffffffffffffffffffffffffffff1673ffffffffffffffffffffffffffffffffffffffff166108fc6003549081150290604051600060405180830381858888f1935050505015801561045c573d6000803e3d6000fd5b50565b600160009054906101000a900473ffffffffffffffffffffffffffffffffffffffff1673ffffffffffffffffffffffffffffffffffffffff163373ffffffffffffffffffffffffffffffffffffffff16146104ef576040517f08c379a00000000000000000000000000000000000000000000000000000000081526004016104e690610d9f565b60405180910390fd5b600454421015610534576040517f08c379a000000000000000000000000000000000000000000000000000000000815260040161052b90610e0b565b60405180910390fd5b6001600381111561054857610547610bd8565b5b600560029054906101000a900460ff16600381111561056a57610569610bd8565b5b146105aa576040517f08c379a00000000000000000000000000000000000000000000000000000000081526004016105a190610d33565b60405180910390fd5b6001600560016101000a81548160ff021916908315150217905550565b600260009054906101000a900473ffffffffffffffffffffffffffffffffffffffff1681565b60008054906101000a900473ffffffffffffffffffffffffffffffffffffffff1681565b600560019054906101000a900460ff1681565b600260009054906101000a900473ffffffffffffffffffffffffffffffffffffffff1673ffffffffffffffffffffffffffffffffffffffff163373ffffffffffffffffffffffffffffffffffffffff16146106b4576040517f08c379a00000000000000000000000000000000000000000000000000000000081526004016106ab90610e77565b60405180910390fd5b600160038111156106c8576106c7610bd8565b5b600560029054906101000a900460ff1660038111156106ea576106e9610bd8565b5b1461072a576040517f08c379a000000000000000000000000000000000000000000000000000000000815260040161072190610d33565b60405180910390fd5b80156107a057600160009054906101000a900473ffffffffffffffffffffffffffffffffffffffff1673ffffffffffffffffffffffffffffffffffffffff166108fc6003549081150290604051600060405180830381858888f1935050505015801561079a573d6000803e3d6000fd5b5061080a565b60008054906101000a900473ffffffffffffffffffffffffffffffffffffffff1673ffffffffffffffffffffffffffffffffffffffff166108fc6003549081150290604051600060405180830381858888f19350505050158015610808573d6000803e3d6000fd5b505b6002600560026101000a81548160ff021916908360038111156108305761082f610bd8565b5b021790555050565b60035481565b600560009054906101000a900460ff1681565b600560029054906101000a900460ff1681565b6004544210156108a9576040517f08c379a00000000000000000000000000000000000000000000000000000000081526004016108a090610e0b565b60405180910390fd5b600160038111156108bd576108bc610bd8565b5b600560029054906101000a900460ff1660038111156108df576108de610bd8565b5b1461091f576040517f08c379a000000000000000000000000000000000000000000000000000000000815260040161091690610d33565b60405180910390fd5b6003600560026101000a81548160ff0219169083600381111561094557610944610bd8565b5b021790555060008054906101000a900473ffffffffffffffffffffffffffffffffffffffff1673ffffffffffffffffffffffffffffffffffffffff166108fc6003549081150290604051600060405180830381858888f193505050501580156109b2573d6000803e3d6000fd5b50565b60008054906101000a900473ffffffffffffffffffffffffffffffffffffffff1673ffffffffffffffffffffffffffffffffffffffff163373ffffffffffffffffffffffffffffffffffffffff1614610a43576040517f08c379a0000000000000000000000000000000000000000000000000000000008152600401610a3a90610ee3565b60405180910390fd5b6003543414610a87576040517f08c379a0000000000000000000000000000000000000000000000000000000008152600401610a7e90610f4f565b60405180910390fd5b6001600560026101000a81548160ff02191690836003811115610aad57610aac610bd8565b5b0217905550565b600073ffffffffffffffffffffffffffffffffffffffff82169050919050565b6000610adf82610ab4565b9050919050565b610aef81610ad4565b82525050565b6000602082019050610b0a6000830184610ae6565b92915050565b6000819050919050565b610b2381610b10565b82525050565b6000602082019050610b3e6000830184610b1a565b92915050565b60008115159050919050565b610b5981610b44565b82525050565b6000602082019050610b746000830184610b50565b92915050565b600080fd5b610b8881610b44565b8114610b9357600080fd5b50565b600081359050610ba581610b7f565b92915050565b600060208284031215610bc157610bc0610b7a565b5b6000610bcf84828501610b96565b91505092915050565b7f4e487b7100000000000000000000000000000000000000000000000000000000600052602160045260246000fd5b60048110610c1857610c17610bd8565b5b50565b6000819050610c2982610c07565b919050565b6000610c3982610c1b565b9050919050565b610c4981610c2e565b82525050565b6000602082019050610c646000830184610c40565b92915050565b600082825260208201905092915050565b7f4f6e6c792062757965722063616e20636f6e6669726d00000000000000000000600082015250565b6000610cb1601683610c6a565b9150610cbc82610c7b565b602082019050919050565b60006020820190508181036000830152610ce081610ca4565b9050919050565b7f496e76616c696420737461746500000000000000000000000000000000000000600082015250565b6000610d1d600d83610c6a565b9150610d2882610ce7565b602082019050919050565b60006020820190508181036000830152610d4c81610d10565b9050919050565b7f4f6e6c792073656c6c65722063616e2072657175657374000000000000000000600082015250565b6000610d89601783610c6a565b9150610d9482610d53565b602082019050919050565b60006020820190508181036000830152610db881610d7c565b9050919050565b7f446561646c696e65206e6f742070617373656400000000000000000000000000600082015250565b6000610df5601383610c6a565b9150610e0082610dbf565b602082019050919050565b60006020820190508181036000830152610e2481610de8565b9050919050565b7f4f6e6c792061726269747261746f720000000000000000000000000000000000600082015250565b6000610e61600f83610c6a565b9150610e6c82610e2b565b602082019050919050565b60006020820190508181036000830152610e9081610e54565b9050919050565b7f4f6e6c7920627579657200000000000000000000000000000000000000000000600082015250565b6000610ecd600a83610c6a565b9150610ed882610e97565b602082019050919050565b60006020820190508181036000830152610efc81610ec0565b9050919050565b7f496e636f727265637420616d6f756e7400000000000000000000000000000000600082015250565b6000610f39601083610c6a565b9150610f4482610f03565b602082019050919050565b60006020820190508181036000830152610f6881610f2c565b905091905056fea2646970667358221220edd285d12596b0923298214c39b0474a04d5c964ac9466171033aad7b053adf864736f6c63430008130033",
  "linkReferences": {},
  "deployedLinkReferences": {}
}